:100000000C9463000C948B000C948B000C948B006C
:100010000C948B000C948B000C948B000C948B0034
:100020000C948B000C948B000C948B000C948B0024
:100030000C948B000C948B000C948B000C948B0014
:100040000C9410030C948B000C94FF040C944D053D
:100050000C948B000C948B000C948B000C948B00F4
:100060000C948B000C948B000000000024002700EF
:100070002A0000000000250028002B0000000000DE
:1000800023002600290004040404040404040202DA
:100090000202020203030303030301020408102007
:1000A0004080010204081020010204081020000012
:1000B0000007000201000003040600000000000029
:1000C00000008D00B90611241FBECFEFD8E0DEBFBF
:1000D000CDBF11E0A0E0B1E0E0E7FFE002C0059095
:1000E0000D92A636B107D9F712E0A6E6B1E001C03D
:1000F0001D92AE32B107E1F710E0C6ECD0E004C0CB
:100100002297FE010E94B207C23CD107C9F70E94A4
:100110000F070C94B6070C940000CF92EF920F9348
:1001200086E691E06CE04BE026E005E054E0E52E49
:1001300033E0C32E0E94D7020F91EF90CF90089525
:1001400087E062E00E9418048CE092E040E855E20B
:1001500060E070E00E94880586E691E060E242E09F
:1001600020E00E942102089586E691E00E94190293
:1001700086E691E060E040E00E94EA0187E00E94AC
:10018000AB04892B61F586E691E060E071E00E94A6
:10019000640786E691E060E041E00E94EA0186E6BD
:1001A00091E062E171E00E9464078CE092E061E01E
:1001B0000E947906809142010E94F60362E070E09D
:1001C0000E946707615070408CE092E00E947906BF
:1001D00064EF71E080E090E00E9458032AC087E05D
:1001E0000E94AB04019729F586E691E06FE271E089
:1001F0000E94640786E691E060E041E00E94EA0127
:1002000086E691E062E171E00E9464078CE092E092
:1002100060E00E947906809142010E94F60362E04C
:1002200070E00E946707615070408CE092E00E948D
:10023000790662E370E080E090E00E945803089540
:100240000F931F938C01FC01868160E00E9457048C
:1002500081E090E00E94B103F801868161E00E9494
:10026000570481E090E00E94B103F801868160E0CC
:100270000E94570484E690E00E94B1031F910F9101
:100280000895CF92DF92EF92FF920F931F93CF9337
:10029000DF93D82EC92E282F392FC9018C01C0E039
:1002A000D0E0E62EFF24F801878161E00E94180467
:1002B000B7010C2E02C0759567950A94E2F761703C
:1002C000F80187810E94570421960F5F1F4FC830A5
:1002D000D10549F78D2D9C2D0E942001DF91CF91F2
:1002E0001F910F91FF90EF90DF90CF900895CF92E4
:1002F000DF92EF92FF920F931F93CF93DF93D82E4D
:10030000C92E282F392FC9018C01C0E0D0E0E62E7C
:10031000FF24F801878161E00E941804B7010C2EC8
:1003200002C0759567950A94E2F76170F8018781BC
:100330000E94570421960F5F1F4FC430D10549F723
:100340008D2D9C2D0E942001DF91CF911F910F9147
:10035000FF90EF90DF90CF9008951F93CF93DF939E
:10036000EC01162F8C81642F0E9457048D818F3FE2
:1003700019F060E00E9457048F8584FF05C0CE010C
:10038000612F0E9441010EC0612F70E084E07595DD
:1003900067958A95E1F7CE010E947701CE01612F22
:1003A0000E947701DF91CF911F91089541E00E9453
:1003B000AD0181E090E0089540E00E94AD01089514
:1003C000FC016089862F8460808B6C60CF010E9465
:1003D000DC010895DF93CF93CDB7DEB728970FB632
:1003E000F894DEBF0FBECDBF9C01FE013196ADE497
:1003F000B1E088E00D9001928150E1F7F901838925
:10040000481710F0482F4150E42FF0E0EE0FFF1F87
:10041000EC0FFD1F8181680F6068C9010E94DC013B
:1004200028960FB6F894DEBF0FBECDBFCF91DF91F7
:10043000089561E00E94DC0180ED97E00E94B10325
:100440000895CF93DF93EC01423018F08F858860D8
:100450008F874B8B1C8A222329F0413019F48F851A
:1004600084608F8780E593EC0E94B1038C8160E00B
:100470000E9457048E8160E00E9457048D818F3F57
:1004800019F060E00E9457046F8564FD1DC0CE0125
:1004900063E00E94770184E991E10E94B103CE01FB
:1004A00063E00E94770184E991E10E94B103CE01EB
:1004B00063E00E94770186E990E00E94B103CE01DB
:1004C00062E00E94770116C06062CE010E94DC01EA
:1004D00084E991E10E94B1036F856062CE010E94C0
:1004E000DC0186E990E00E94B1036F856062CE0175
:1004F0000E94DC016F856062CE010E94DC0184E015
:10050000888BCE010E94E001CE010E94190282E098
:10051000898BCE0166E00E94DC01DF91CF910895C6
:100520006F927F928F92AF92CF92EF920F931F9321
:10053000DF93CF93CDB7DEB73C01162F842FF301A5
:10054000448325830683E782C086A18682869D85B3
:1005500093879E8594879F8595879889968761E084
:100560000E941804F30185818F3F19F061E00E9419
:100570001804F301868161E00E941804112319F028
:10058000F301178603C080E1F3018787C30160E1AF
:1005900041E020E00E942102CF91DF911F910F9155
:1005A000EF90CF90AF908F907F906F9008958F9243
:1005B000AF92CF92EF920F931F93CF93DF93DC0113
:1005C000362F542F722F102FAE2C8C2C13961C927A
:1005D0001E92129789E491E011969C938E9300D01D
:1005E00000D0EDB7FEB73196CDB7DEB719821182D4
:1005F00012821382CD0161E0432F2FEF052FE72EEA
:10060000C12E0E9490020F900F900F900F90DF91DB
:10061000CF911F910F91EF90CF90AF908F90089551
:100620001F920F920FB60F9211242F933F938F9327
:100630009F93AF93BF9380917F0190918001A09190
:100640008101B0918201309183010196A11DB11DFC
:10065000232F2D5F2D3720F02D570196A11DB11DA1
:100660002093830180937F0190938001A093810167
:10067000B093820180917B0190917C01A0917D01DA
:10068000B0917E010196A11DB11D80937B019093D5
:100690007C01A0937D01B0937E01BF91AF919F91AA
:1006A0008F913F912F910F900FBE0F901F90189533
:1006B0009B01AC017FB7F89480917B0190917C0104
:1006C000A0917D01B0917E0166B5A89B05C06F3FEA
:1006D00019F00196A11DB11D7FBFBA2FA92F982F28
:1006E0008827860F911DA11DB11D62E0880F991FFB
:1006F000AA1FBB1F6A95D1F7BC012DC0FFB7F894A4
:1007000080917B0190917C01A0917D01B0917E014F
:10071000E6B5A89B05C0EF3F19F00196A11DB11DDC
:10072000FFBFBA2FA92F982F88278E0F911DA11DCB
:10073000B11DE2E0880F991FAA1FBB1FEA95D1F7F0
:10074000861B970B885E9340C8F221503040404092
:10075000504068517C4F211531054105510571F616
:100760000895019739F0880F991F880F991F0297F4
:100770000197F1F70895789484B5826084BD84B5BB
:10078000816084BD85B5826085BD85B5816085BD8C
:10079000EEE6F0E0808181608083E1E8F0E01082A5
:1007A000808182608083808181608083E0E8F0E0E6
:1007B000808181608083E1EBF0E0808184608083D0
:1007C000E0EBF0E0808181608083EAE7F0E0808107
:1007D0008460808380818260808380818160808367
:1007E0008081806880831092C1000895982F8E3098
:1007F00008F09E509770809144018295880F880F71
:10080000807C892B80937C0080917A008064809327
:100810007A0080917A0086FDFCCF2091780040918B
:100820007900942F80E030E0282B392BC9010895FE
:10083000CF93DF93482F50E0CA0186569F4FFC01AB
:1008400034914A575F4FFA018491882369F190E00F
:10085000880F991FFC01E859FF4FA591B491FC0145
:10086000EE58FF4FC591D491662351F42FB7F894F9
:100870008C91932F909589238C93888189230BC029
:10088000623061F42FB7F8948C91932F909589235F
:100890008C938881832B88832FBF06C09FB7F894E1
:1008A0008C91832B8C939FBFDF91CF910895482F1C
:1008B00050E0CA0182559F4FFC012491CA0186561F
:1008C0009F4FFC0194914A575F4FFA0134913323B3
:1008D00009F440C0222351F1233071F0243028F470
:1008E0002130A1F0223011F514C02630B1F02730AC
:1008F000C1F02430D9F404C0809180008F7703C008
:10090000809180008F7D8093800010C084B58F77A8
:1009100002C084B58F7D84BD09C08091B0008F77FF
:1009200003C08091B0008F7D8093B000E32FF0E092
:10093000EE0FFF1FEE58FF4FA591B4912FB7F8941B
:10094000662321F48C919095892302C08C91892B88
:100950008C932FBF0895682F70E0CB0182559F4F75
:10096000FC012491CB0186569F4FFC0144916A57AC
:100970007F4FFB019491992319F420E030E03CC0B3
:10098000222351F1233071F0243028F42130A1F0DA
:10099000223011F514C02630B1F02730C1F02430D8
:1009A000D9F404C0809180008F7703C080918000CB
:1009B0008F7D8093800010C084B58F7702C084B58E
:1009C0008F7D84BD09C08091B0008F7703C0809176
:1009D000B0008F7D8093B000892F90E0880F991F21
:1009E00084589F4FFC01A591B4918C9120E030E098
:1009F000842311F021E030E0C901089508951F9289
:100A00000F920FB60F9211242F933F934F938F9312
:100A10009F93EF93FF938091C00082FD1DC0409192
:100A2000C6002091C4013091C5012F5F3F4F2F7345
:100A300030708091C6019091C7012817390771F075
:100A4000E091C401F091C501EC57FE4F4083309313
:100A5000C5012093C40102C08091C600FF91EF91AF
:100A60009F918F914F913F912F910F900FBE0F90BB
:100A70001F901895E0911802F0911902E05CFF4F69
:100A80008191919120813181821B930B8F739070A2
:100A9000892B11F00E94FE0408951F920F920FB649
:100AA0000F9211242F933F938F939F93EF93FF9374
:100AB000209108023091090280910A0290910B0264
:100AC0002817390731F48091C1008F7D8093C100D0
:100AD00014C0E0910A02F0910B02E853FE4F20810E
:100AE00080910A0290910B0201968F7390709093FF
:100AF0000B0280930A022093C600FF91EF919F9111
:100B00008F913F912F910F900FBE0F901F901895CE
:100B1000AF92BF92DF92EF92FF920F931F93CF930A
:100B2000DF93EC017A018B01DD24403081EE580720
:100B300080E0680780E0780711F0DD24D39491E02D
:100B4000A92EB12CEC89FD89DD2069F0C50108A032
:100B500002C0880F991F0A94E2F7808360E079E071
:100B60008DE390E005C0108260E874E88EE190E0CB
:100B7000A80197010E947A07215030404040504020
:100B8000569547953795279580E12030380720F016
:100B9000DD2011F0DD24D6CFE889F9893083EA8998
:100BA000FB89208319A2EE89FF89408121E030E092
:100BB000C9010C8C02C0880F991F0A94E2F7482BD8
:100BC0004083EE89FF894081C9010D8C02C0880FE6
:100BD000991F0A94E2F7482B4083EE89FF894081F0
:100BE000C9010E8C02C0880F991F0A94E2F7482BA6
:100BF0004083EE89FF8980810F8C02C0220F331F52
:100C00000A94E2F7209528232083DF91CF911F914A
:100C10000F91FF90EF90DF90BF90AF900895DC01AF
:100C20001C96ED91FC911D97E05CFF4F2191319155
:100C300080819181281B390B2F733070C901089571
:100C4000DC011C96ED91FC911D97E05CFF4F20812B
:100C50003181E054F040DF01AE5BBF4F8D919C913C
:100C600011972817390719F42FEF3FEF07C08D911F
:100C70009C91E80FF91F8081282F30E0C901089569
:100C8000DC011C96ED91FC911D97E05CFF4F2081EB
:100C90003181E054F040DF01AE5BBF4F8D919C91FC
:100CA00011972817390719F42FEF3FEF10C08D91D6
:100CB0009C911197E80FF91F20818D919C911197BC
:100CC00001968F73907011969C938E9330E0C901BA
:100CD0000895DC0191968C919197882339F0549670
:100CE000ED91FC915597808186FFF9CF91961C92EA
:100CF0000895CF93DF93EC01EE85FF85E05CFF4F15
:100D000020813181E054F0402F5F3F4F2F733070CE
:100D1000DF01AE5BBF4F8D919C911197281739076A
:100D2000D1F3E05CFF4F80819181E054F040E80F07
:100D3000F91F6083EE85FF85E05CFF4F31832083E0
:100D4000EE89FF89208181E090E00F8C02C0880F3E
:100D5000991F0A94E2F7282B208381E089A3EC896C
:100D6000FD8980818064808381E090E0DF91CF9174
:100D7000089510920F0210920E0288EE93E0A0E008
:100D8000B0E08093100290931102A0931202B093EE
:100D9000130289E591E090930D0280930C0284E8A0
:100DA00091E0909319028093180288EC91E090935F
:100DB0001B0280931A0285EC90E090931D028093B1
:100DC0001C0284EC90E090931F0280931E0280EC42
:100DD00090E0909321028093200281EC90E0909328
:100DE00023028093220282EC90E09093250280936C
:100DF000240286EC90E0909327028093260284E000
:100E00008093280283E08093290287E080932A025E
:100E100085E080932B0281E080932C020895CF938C
:100E2000DF930E94BB030E94A000CAE3D5E00E94AA
:100E3000B4002097E1F30E943A05F9CFCF92DF92F8
:100E4000EF92FF920F931F93CF93DF937C016B017F
:100E50008A01C0E0D0E00FC0D6016D916D01D701CD
:100E6000ED91FC910190F081E02DC7010995C80F2B
:100E7000D91F015010400115110571F7CE01DF9106
:100E8000CF911F910F91FF90EF90DF90CF90089539
:100E9000CF93DF93EC016115710519F420E030E088
:100EA0000FC0DB010D900020E9F71197A61BB70BCF
:100EB000E881F9810280F381E02DAD0109959C0163
:100EC000C901DF91CF9108950E944807089597FBCB
:100ED000092E07260AD077FD04D02ED006D0002098
:100EE0001AF4709561957F4F0895F6F79095819566
:100EF0009F4F0895A1E21A2EAA1BBB1BFD010DC036
:100F0000AA1FBB1FEE1FFF1FA217B307E407F507B9
:100F100020F0A21BB30BE40BF50B661F771F881F95
:100F2000991F1A9469F760957095809590959B012B
:100F3000AC01BD01CF010895AA1BBB1B51E107C045
:100F4000AA1FBB1FA617B70710F0A61BB70B881F59
:100F5000991F5A95A9F780959095BC01CD010895E8
:100F6000EE0FFF1F0590F491E02D0994F894FFCF48
:100F70004469676974616C2053656E736F72204FAA
:100F80004E0073656E64696E672054454D502D5355
:100F9000454E534F5220646174612E2E2E2E004414
:100FA00069676974616C2053656E736F72204F4678
:100FB00046000E000100000000D6011E07000040A0
:100FC00000140054000000000079061E070F0640C0
:060FD00006200669060080
:00000001FF
