:100000000C9463000C948B000C948B000C948B006C
:100010000C948B000C948B000C948B000C948B0034
:100020000C948B000C948B000C948B000C948B0024
:100030000C948B000C948B000C948B000C948B0014
:100040000C9410030C948B000C948A040C94D80428
:100050000C948B000C948B000C948B000C948B00F4
:100060000C948B000C948B000000000024002700EF
:100070002A0000000000250028002B0000000000DE
:1000800023002600290004040404040404040202DA
:100090000202020203030303030301020408102007
:1000A0004080010204081020010204081020000012
:1000B0000007000201000003040600000000000029
:1000C00000008D00440611241FBECFEFD8E0DEBF34
:1000D000CDBF11E0A0E0B1E0EAE4F0E102C005909C
:1000E0000D92A237B107D9F712E0A2E7B1E001C043
:1000F0001D92AA33B107E1F710E0C6ECD0E004C0CE
:100100002297FE010E941F08C23CD107C9F70E9436
:100110009A060C9423080C940000CF92EF920F9350
:1001200082E791E06CE04BE026E005E054E0E52E4C
:1001300033E0C32E0E94D7020F91EF90CF90089525
:1001400082E791E00E94190282E791E060E040E0DE
:100150000E94EA0188E192E00E94CB05019781F5B7
:1001600082E791E060E071E00E94C60782E791E0DB
:1001700060E041E00E94EA0182E791E062E171E023
:100180000E94C60788E192E061E371E00E94C60721
:1001900088E192E00E94CB05BC0188E192E04AE050
:1001A00050E00E94B30788E192E069E371E00E94A9
:1001B000C90764EF71E080E090E00E94580329C015
:1001C00082E791E06FE371E00E94C60782E791E069
:1001D00060E041E00E94EA0182E791E062E171E0C3
:1001E0000E94C60788E192E061E371E00E94C607C1
:1001F00088E192E00E94CB05BC0188E192E04AE0F0
:1002000050E00E94B30788E192E069E371E00E9448
:10021000C90762E370E080E090E00E94580308950F
:1002200088E192E040E855E260E070E00E9413054A
:1002300082E791E060E242E020E00E94210208951E
:100240000F931F938C01FC01868160E00E943504AE
:1002500081E090E00E94B103F801868161E00E9494
:10026000350481E090E00E94B103F801868160E0EE
:100270000E94350484E690E00E94B1031F910F9123
:100280000895CF92DF92EF92FF920F931F93CF9337
:10029000DF93D82EC92E282F392FC9018C01C0E039
:1002A000D0E0E62EFF24F801878161E00E94F6038A
:1002B000B7010C2E02C0759567950A94E2F761703C
:1002C000F80187810E94350421960F5F1F4FC830C7
:1002D000D10549F78D2D9C2D0E942001DF91CF91F2
:1002E0001F910F91FF90EF90DF90CF900895CF92E4
:1002F000DF92EF92FF920F931F93CF93DF93D82E4D
:10030000C92E282F392FC9018C01C0E0D0E0E62E7C
:10031000FF24F801878161E00E94F603B7010C2EEB
:1003200002C0759567950A94E2F76170F8018781BC
:100330000E94350421960F5F1F4FC430D10549F745
:100340008D2D9C2D0E942001DF91CF911F910F9147
:10035000FF90EF90DF90CF9008951F93CF93DF939E
:10036000EC01162F8C81642F0E9435048D818F3F04
:1003700019F060E00E9435048F8584FF05C0CE012E
:10038000612F0E9441010EC0612F70E084E07595DD
:1003900067958A95E1F7CE010E947701CE01612F22
:1003A0000E947701DF91CF911F91089541E00E9453
:1003B000AD0181E090E0089540E00E94AD01089514
:1003C000FC016089862F8460808B6C60CF010E9465
:1003D000DC010895DF93CF93CDB7DEB728970FB632
:1003E000F894DEBF0FBECDBF9C01FE013196AAE599
:1003F000B1E088E00D9001928150E1F7F901838925
:10040000481710F0482F4150E42FF0E0EE0FFF1F87
:10041000EC0FFD1F8181680F6068C9010E94DC013B
:1004200028960FB6F894DEBF0FBECDBFCF91DF91F7
:10043000089561E00E94DC0180ED97E00E94B10325
:100440000895CF93DF93EC01423018F08F858860D8
:100450008F874B8B1C8A222329F0413019F48F851A
:1004600084608F8780E593EC0E94B1038C8160E00B
:100470000E9435048E8160E00E9435048D818F3F9B
:1004800019F060E00E9435046F8564FD1DC0CE0147
:1004900063E00E94770184E991E10E94B103CE01FB
:1004A00063E00E94770184E991E10E94B103CE01EB
:1004B00063E00E94770186E990E00E94B103CE01DB
:1004C00062E00E94770116C06062CE010E94DC01EA
:1004D00084E991E10E94B1036F856062CE010E94C0
:1004E000DC0186E990E00E94B1036F856062CE0175
:1004F0000E94DC016F856062CE010E94DC0184E015
:10050000888BCE010E94E001CE010E94190282E098
:10051000898BCE0166E00E94DC01DF91CF910895C6
:100520006F927F928F92AF92CF92EF920F931F9321
:10053000DF93CF93CDB7DEB73C01162F842FF301A5
:10054000448325830683E782C086A18682869D85B3
:1005500093879E8594879F8595879889968761E084
:100560000E94F603F30185818F3F19F061E00E943C
:10057000F603F301868161E00E94F603112319F06E
:10058000F301178603C080E1F3018787C30160E1AF
:1005900041E020E00E942102CF91DF911F910F9155
:1005A000EF90CF90AF908F907F906F9008958F9243
:1005B000AF92CF92EF920F931F93CF93DF93DC0113
:1005C000362F542F722F102FAE2C8C2C13961C927A
:1005D0001E92129786E591E011969C938E9300D01F
:1005E00000D0EDB7FEB73196CDB7DEB719821182D4
:1005F00012821382CD0161E0432F2FEF052FE72EEA
:10060000C12E0E9490020F900F900F900F90DF91DB
:10061000CF911F910F91EF90CF90AF908F90089551
:100620001F920F920FB60F9211242F933F938F9327
:100630009F93AF93BF9380918B0190918C01A09178
:100640008D01B0918E0130918F010196A11DB11DD8
:10065000232F2D5F2D3720F02D570196A11DB11DA1
:1006600020938F0180938B0190938C01A0938D0137
:10067000B0938E018091870190918801A0918901AA
:10068000B0918A010196A11DB11D809387019093BD
:100690008801A0938901B0938A01BF91AF919F9186
:1006A0008F913F912F910F900FBE0F901F90189533
:1006B0009B01AC017FB7F8948091870190918801EC
:1006C000A0918901B0918A0166B5A89B05C06F3FD2
:1006D00019F00196A11DB11D7FBFBA2FA92F982F28
:1006E0008827860F911DA11DB11D62E0880F991FFB
:1006F000AA1FBB1F6A95D1F7BC012DC0FFB7F894A4
:100700008091870190918801A0918901B0918A011F
:10071000E6B5A89B05C0EF3F19F00196A11DB11DDC
:10072000FFBFBA2FA92F982F88278E0F911DA11DCB
:10073000B11DE2E0880F991FAA1FBB1FEA95D1F7F0
:10074000861B970B885E9340C8F221503040404092
:10075000504068517C4F211531054105510571F616
:100760000895019739F0880F991F880F991F0297F4
:100770000197F1F70895789484B5826084BD84B5BB
:10078000816084BD85B5826085BD85B5816085BD8C
:10079000EEE6F0E0808181608083E1E8F0E01082A5
:1007A000808182608083808181608083E0E8F0E0E6
:1007B000808181608083E1EBF0E0808184608083D0
:1007C000E0EBF0E0808181608083EAE7F0E0808107
:1007D0008460808380818260808380818160808367
:1007E0008081806880831092C1000895CF93DF9349
:1007F000482F50E0CA0186569F4FFC0134914A575A
:100800005F4FFA018491882369F190E0880F991F66
:10081000FC01E859FF4FA591B491FC01EE58FF4F40
:10082000C591D491662351F42FB7F8948C91932FEE
:10083000909589238C93888189230BC0623061F461
:100840002FB7F8948C91932F909589238C9388815E
:10085000832B88832FBF06C09FB7F8948C91832B7E
:100860008C939FBFDF91CF910895482F50E0CA012C
:1008700082559F4FFC012491CA0186569F4FFC016F
:1008800094914A575F4FFA013491332309F440C0E1
:10089000222351F1233071F0243028F42130A1F0CB
:1008A000223011F514C02630B1F02730C1F02430C9
:1008B000D9F404C0809180008F7703C080918000BC
:1008C0008F7D8093800010C084B58F7702C084B57F
:1008D0008F7D84BD09C08091B0008F7703C0809167
:1008E000B0008F7D8093B000E32FF0E0EE0FFF1F8C
:1008F000EE58FF4FA591B4912FB7F894662321F4D9
:100900008C919095892302C08C91892B8C932FBF59
:10091000089508951F920F920FB60F9211242F93EE
:100920003F934F938F939F93EF93FF938091C000DA
:1009300082FD1DC04091C6002091D0013091D101AF
:100940002F5F3F4F2F7330708091D2019091D30170
:100950002817390771F0E091D001F091D101E057EB
:10096000FE4F40833093D1012093D00102C080918B
:10097000C600FF91EF919F918F914F913F912F91E1
:100980000F900FBE0F901F901895E0912402F091E8
:100990002502E05CFF4F8191919120813181821B82
:1009A000930B8F739070892B11F00E948904089526
:1009B0001F920F920FB60F9211242F933F938F9394
:1009C0009F93EF93FF932091140230911502809131
:1009D0001602909117022817390731F48091C1004F
:1009E0008F7D8093C10014C0E0911602F091170230
:1009F000EC52FE4F208180911602909117020196D1
:100A00008F73907090931702809316022093C60004
:100A1000FF91EF919F918F913F912F910F900FBE7A
:100A20000F901F901895AF92BF92DF92EF92FF92B6
:100A30000F931F93CF93DF93EC017A018B01DD2499
:100A4000403081EE580780E0680780E0780711F0B9
:100A5000DD24D39491E0A92EB12CEC89FD89DD2011
:100A600069F0C50108A002C0880F991F0A94E2F737
:100A7000808360E079E08DE390E005C0108260E85B
:100A800074E88EE190E0A80197010E94FB072150D5
:100A9000304040405040569547953795279580E126
:100AA0002030380720F0DD2011F0DD24D6CFE88992
:100AB000F9893083EA89FB89208319A2EE89FF89AD
:100AC000408121E030E0C9010C8C02C0880F991FE1
:100AD0000A94E2F7482B4083EE89FF894081C901DF
:100AE0000D8C02C0880F991F0A94E2F7482B4083AF
:100AF000EE89FF894081C9010E8C02C0880F991FC1
:100B00000A94E2F7482B4083EE89FF8980810F8C9D
:100B100002C0220F331F0A94E2F720952823208376
:100B2000DF91CF911F910F91FF90EF90DF90BF90D9
:100B3000AF900895DC011C96ED91FC911D97E05C4F
:100B4000FF4F2191319180819181281B390B2F73A7
:100B50003070C9010895DC011C96ED91FC911D9740
:100B6000E05CFF4F20813181E054F040DF01AE5B5B
:100B7000BF4F8D919C9111972817390719F42FEFCA
:100B80003FEF07C08D919C91E80FF91F8081282FBE
:100B900030E0C9010895DC011C96ED91FC911D9790
:100BA000E05CFF4F20813181E054F040DF01AE5B1B
:100BB000BF4F8D919C9111972817390719F42FEF8A
:100BC0003FEF10C08D919C911197E80FF91F208184
:100BD0008D919C91119701968F73907011969C93B3
:100BE0008E9330E0C9010895DC0191968C91919724
:100BF000882339F05496ED91FC915597808186FFBA
:100C0000F9CF91961C920895CF93DF93EC01EE8576
:100C1000FF85E05CFF4F20813181E054F0402F5F81
:100C20003F4F2F733070DF01AE5BBF4F8D919C91B2
:100C3000119728173907D1F3E05CFF4F808191812C
:100C4000E054F040E80FF91F6083EE85FF85E05C1B
:100C5000FF4F31832083EE89FF89208181E090E07E
:100C60000F8C02C0880F991F0A94E2F7282B20836B
:100C700081E089A3EC89FD8980818064808381E0A3
:100C800090E0DF91CF91089510921B0210921A020A
:100C900088EE93E0A0E0B0E080931C0290931D02E8
:100CA000A0931E02B0931F0286E691E09093190272
:100CB0008093180280E991E09093250280932402AA
:100CC00084ED91E0909327028093260285EC90E0DA
:100CD000909329028093280284EC90E090932B0259
:100CE00080932A0280EC90E090932D0280932C0256
:100CF00081EC90E090932F0280932E0282EC90E0A2
:100D0000909331028093300286EC90E0909333020E
:100D10008093320284E08093340283E08093350232
:100D200087E08093360285E08093370281E08093EC
:100D300038020895CF93DF930E94BB030E941001F5
:100D4000C5ECD4E00E94A0002097E1F30E94C50406
:100D5000F9CFCF92DF92EF92FF920F931F93CF9331
:100D6000DF937C016B018A01C0E0D0E00FC0D601A7
:100D70006D916D01D701ED91FC910190F081E02D15
:100D8000C7010995C80FD91F015010400115110561
:100D900071F7CE01DF91CF911F910F91FF90EF90EE
:100DA000DF90CF900895EF92FF920F931F938C01E5
:100DB000DC01ED91FC910190F081E02D6DE0099551
:100DC0007C01D801ED91FC910190F081E02DC801EA
:100DD0006AE009959C012E0D3F1DC9011F910F91DD
:100DE000FF90EF900895CF93DF93EC0161157105AB
:100DF00019F420E030E00FC0DB010D900020E9F78E
:100E00001197A61BB70BE881F9810280F381E02DD1
:100E1000AD0109959C01C901DF91CF9108954F92D1
:100E20005F927F928F929F92AF92BF92CF92DF920A
:100E3000EF92FF920F931F93DF93CF93CDB7DEB75F
:100E4000A1970FB6F894DEBF0FBECDBF2C01742E54
:100E5000CB01223008F42AE019A231E2C32ED12CB2
:100E6000CC0EDD1E822E9924AA24BB24672D752F5B
:100E7000A50194010E94FB0779018A01C801B7010D
:100E8000A50194010E94DC07472D461B0894C10868
:100E9000D1084A3014F4405D01C0495CF60140833A
:100EA000E114F1040105110521F07E2C5F2DC8012C
:100EB000DDCFC201B6010E94F306A1960FB6F894E9
:100EC000DEBF0FBECDBFCF91DF911F910F91FF907D
:100ED000EF90DF90CF90BF90AF909F908F907F90DA
:100EE0005F904F900895CF92DF92EF92FF920F9311
:100EF0001F93CF93DF93EC016A017B01211531052C
:100F000041F4E881F9810190F081E02D642F099589
:100F10001FC02A303105D1F477FF17C0E881F9816D
:100F20000190F081E02D6DE209958C014427552751
:100F3000BA014C195D096E097F09CE012AE00E94B1
:100F40000F079801280F391F04C02AE00E940F07DD
:100F50009C01C901DF91CF911F910F91FF90EF90FC
:100F6000DF90CF900895EF92FF920F931F937B0134
:100F70009A010027F7FC0095102FB801A7010E94E5
:100F800073071F910F91FF90EF9008950E94F30651
:100F90000895EF92FF920F931F937C010E94F30636
:100FA0008C01C7010E94D306080F191FC8011F91A9
:100FB0000F91FF90EF900895629FD001739FF00111
:100FC000829FE00DF11D649FE00DF11D929FF00DD9
:100FD000839FF00D749FF00D659FF00D9927729F10
:100FE000B00DE11DF91F639FB00DE11DF91FBD019B
:100FF000CF0111240895A1E21A2EAA1BBB1BFD01EB
:101000000DC0AA1FBB1FEE1FFF1FA217B307E407E7
:10101000F50720F0A21BB30BE40BF50B661F771F3F
:10102000881F991F1A9469F760957095809590951F
:101030009B01AC01BD01CF010895EE0FFF1F05908C
:0A104000F491E02D0994F894FFCF1D
:10104A004469676974616C2053656E736F72204FCF
:10105A004E00726563696576696E672054454D5026
:10106A002D53454E534F5220646174612E2E2E2EFD
:10107A000074656D70203A20002020202A43004425
:10108A0069676974616C2053656E736F72204F468D
:10109A00460000000000D601A90600004000140026
:1010AA005400000000000406A9069A05CB05AB050A
:0210BA00F4053B
:00000001FF
